{
  "contractName": "ticketingSystem",
  "abi": [
    {
      "constant": true,
      "inputs": [
        {
          "name": "",
          "type": "uint256"
        }
      ],
      "name": "ticketsRegister",
      "outputs": [
        {
          "name": "owner",
          "type": "address"
        },
        {
          "name": "artistId",
          "type": "uint256"
        },
        {
          "name": "concertId",
          "type": "uint256"
        },
        {
          "name": "venueId",
          "type": "uint256"
        },
        {
          "name": "concertDate",
          "type": "uint256"
        },
        {
          "name": "amountPaid",
          "type": "uint256"
        },
        {
          "name": "salePrice",
          "type": "uint256"
        },
        {
          "name": "isRefundable",
          "type": "bool"
        },
        {
          "name": "isAvailable",
          "type": "bool"
        },
        {
          "name": "isAvailableForSale",
          "type": "bool"
        }
      ],
      "payable": false,
      "stateMutability": "view",
      "type": "function"
    },
    {
      "constant": true,
      "inputs": [
        {
          "name": "",
          "type": "uint256"
        }
      ],
      "name": "artistsRegister",
      "outputs": [
        {
          "name": "name",
          "type": "bytes32"
        },
        {
          "name": "owner",
          "type": "address"
        },
        {
          "name": "artistCategory",
          "type": "uint256"
        },
        {
          "name": "totalTicketSold",
          "type": "uint256"
        }
      ],
      "payable": false,
      "stateMutability": "view",
      "type": "function"
    },
    {
      "constant": true,
      "inputs": [
        {
          "name": "",
          "type": "uint256"
        }
      ],
      "name": "venuesRegister",
      "outputs": [
        {
          "name": "owner",
          "type": "address"
        },
        {
          "name": "name",
          "type": "bytes32"
        },
        {
          "name": "capacity",
          "type": "uint256"
        },
        {
          "name": "standardComission",
          "type": "uint256"
        }
      ],
      "payable": false,
      "stateMutability": "view",
      "type": "function"
    },
    {
      "constant": true,
      "inputs": [
        {
          "name": "",
          "type": "uint256"
        }
      ],
      "name": "concertsRegister",
      "outputs": [
        {
          "name": "owner",
          "type": "address"
        },
        {
          "name": "concertDate",
          "type": "uint256"
        },
        {
          "name": "numberPlace",
          "type": "uint256"
        },
        {
          "name": "artistId",
          "type": "uint256"
        },
        {
          "name": "venueId",
          "type": "uint256"
        },
        {
          "name": "validatedByVenue",
          "type": "bool"
        },
        {
          "name": "validatedByArtist",
          "type": "bool"
        },
        {
          "name": "price",
          "type": "uint256"
        },
        {
          "name": "totalSoldTicket",
          "type": "uint256"
        },
        {
          "name": "totalMoneyCollected",
          "type": "uint256"
        }
      ],
      "payable": false,
      "stateMutability": "view",
      "type": "function"
    },
    {
      "anonymous": false,
      "inputs": [
        {
          "indexed": false,
          "name": "artistNumber",
          "type": "uint256"
        }
      ],
      "name": "createdAnArtist",
      "type": "event"
    },
    {
      "anonymous": false,
      "inputs": [
        {
          "indexed": false,
          "name": "venueNumber",
          "type": "uint256"
        }
      ],
      "name": "createdAVenue",
      "type": "event"
    },
    {
      "anonymous": false,
      "inputs": [
        {
          "indexed": false,
          "name": "concertNumber",
          "type": "uint256"
        }
      ],
      "name": "createdAConcert",
      "type": "event"
    },
    {
      "anonymous": false,
      "inputs": [
        {
          "indexed": false,
          "name": "num",
          "type": "uint256"
        }
      ],
      "name": "createdATicket",
      "type": "event"
    },
    {
      "constant": false,
      "inputs": [
        {
          "name": "_name",
          "type": "bytes32"
        },
        {
          "name": "_artistCategory",
          "type": "uint256"
        }
      ],
      "name": "createArtist",
      "outputs": [],
      "payable": false,
      "stateMutability": "nonpayable",
      "type": "function"
    },
    {
      "constant": false,
      "inputs": [
        {
          "name": "_id",
          "type": "uint256"
        },
        {
          "name": "newName",
          "type": "bytes32"
        },
        {
          "name": "newCategory",
          "type": "uint256"
        },
        {
          "name": "newAdd",
          "type": "address"
        }
      ],
      "name": "modifyArtist",
      "outputs": [],
      "payable": false,
      "stateMutability": "nonpayable",
      "type": "function"
    },
    {
      "constant": false,
      "inputs": [
        {
          "name": "_name",
          "type": "bytes32"
        },
        {
          "name": "_capacity",
          "type": "uint256"
        },
        {
          "name": "_standardComission",
          "type": "uint256"
        }
      ],
      "name": "createVenue",
      "outputs": [],
      "payable": false,
      "stateMutability": "nonpayable",
      "type": "function"
    },
    {
      "constant": false,
      "inputs": [
        {
          "name": "_idV",
          "type": "uint256"
        },
        {
          "name": "newName",
          "type": "bytes32"
        },
        {
          "name": "newCapacity",
          "type": "uint256"
        },
        {
          "name": "newComission",
          "type": "uint256"
        },
        {
          "name": "newAdd",
          "type": "address"
        }
      ],
      "name": "modifyVenue",
      "outputs": [],
      "payable": false,
      "stateMutability": "nonpayable",
      "type": "function"
    },
    {
      "constant": false,
      "inputs": [
        {
          "name": "_artistId",
          "type": "uint256"
        },
        {
          "name": "_venueId",
          "type": "uint256"
        },
        {
          "name": "_concertDate",
          "type": "uint256"
        },
        {
          "name": "_ticketPrice",
          "type": "uint256"
        }
      ],
      "name": "createConcert",
      "outputs": [
        {
          "name": "concertNumber",
          "type": "uint256"
        }
      ],
      "payable": false,
      "stateMutability": "nonpayable",
      "type": "function"
    },
    {
      "constant": false,
      "inputs": [
        {
          "name": "_concertId",
          "type": "uint256"
        }
      ],
      "name": "validateConcert",
      "outputs": [],
      "payable": false,
      "stateMutability": "nonpayable",
      "type": "function"
    },
    {
      "constant": false,
      "inputs": [
        {
          "name": "_concertId",
          "type": "uint256"
        },
        {
          "name": "_receiver",
          "type": "address"
        }
      ],
      "name": "emitTicket",
      "outputs": [],
      "payable": false,
      "stateMutability": "nonpayable",
      "type": "function"
    },
    {
      "constant": false,
      "inputs": [
        {
          "name": "_concertId",
          "type": "uint256"
        }
      ],
      "name": "buyTicket",
      "outputs": [],
      "payable": true,
      "stateMutability": "payable",
      "type": "function"
    },
    {
      "constant": false,
      "inputs": [
        {
          "name": "_ticketId",
          "type": "uint256"
        },
        {
          "name": "_receiver",
          "type": "address"
        }
      ],
      "name": "transferTicket",
      "outputs": [],
      "payable": false,
      "stateMutability": "nonpayable",
      "type": "function"
    },
    {
      "constant": false,
      "inputs": [
        {
          "name": "_ticketId",
          "type": "uint256"
        },
        {
          "name": "_salePrice",
          "type": "uint256"
        }
      ],
      "name": "offerTicketForSale",
      "outputs": [],
      "payable": false,
      "stateMutability": "nonpayable",
      "type": "function"
    },
    {
      "constant": false,
      "inputs": [
        {
          "name": "_ticketId",
          "type": "uint256"
        }
      ],
      "name": "buySecondHandTicket",
      "outputs": [],
      "payable": true,
      "stateMutability": "payable",
      "type": "function"
    },
    {
      "constant": false,
      "inputs": [
        {
          "name": "_ticketId",
          "type": "uint256"
        }
      ],
      "name": "useTicket",
      "outputs": [],
      "payable": false,
      "stateMutability": "nonpayable",
      "type": "function"
    },
    {
      "constant": false,
      "inputs": [
        {
          "name": "_ticketId",
          "type": "uint256"
        }
      ],
      "name": "redeemTicket",
      "outputs": [],
      "payable": false,
      "stateMutability": "nonpayable",
      "type": "function"
    }
  ],
  "bytecode": "0x60806040526001805560016003556001600555600060075534801561002357600080fd5b506119c2806100336000396000f3fe6080604052600436106100f1576000357c0100000000000000000000000000000000000000000000000000000000900463ffffffff16806315f59d7f146100f657806317606737146101315780632660644814610176578063486ff9ae146101b157806359cb327a1461020c5780635dfe92911461025b578063640c490914610321578063679ebf1a1461034f57806367dd74ca146103aa57806388d65846146103d857806390b3b0141461045157806392fc3b08146104c057806397af2930146104fb578063a88ae8151461058b578063e03536f31461061b578063e62e4f8d14610688578063f02eafd1146106cd575b600080fd5b34801561010257600080fd5b5061012f6004803603602081101561011957600080fd5b810190808035906020019092919050505061078f565b005b34801561013d57600080fd5b506101746004803603604081101561015457600080fd5b8101908080359060200190929190803590602001909291905050506109a2565b005b34801561018257600080fd5b506101af6004803603602081101561019957600080fd5b8101908080359060200190929190505050610a85565b005b3480156101bd57600080fd5b5061020a600480360360408110156101d457600080fd5b8101908080359060200190929190803573ffffffffffffffffffffffffffffffffffffffff169060200190929190505050610c12565b005b34801561021857600080fd5b506102596004803603606081101561022f57600080fd5b81019080803590602001909291908035906020019092919080359060200190929190505050610c4f565b005b34801561026757600080fd5b506102946004803603602081101561027e57600080fd5b8101908080359060200190929190505050610d47565b604051808b73ffffffffffffffffffffffffffffffffffffffff1673ffffffffffffffffffffffffffffffffffffffff1681526020018a81526020018981526020018881526020018781526020018681526020018581526020018415151515815260200183151515158152602001821515151581526020019a505050505050505050505060405180910390f35b61034d6004803603602081101561033757600080fd5b8101908080359060200190929190505050610de2565b005b34801561035b57600080fd5b506103a86004803603604081101561037257600080fd5b8101908080359060200190929190803573ffffffffffffffffffffffffffffffffffffffff169060200190929190505050610f02565b005b6103d6600480360360208110156103c057600080fd5b8101908080359060200190929190505050610fcb565b005b3480156103e457600080fd5b5061044f600480360360a08110156103fb57600080fd5b8101908080359060200190929190803590602001909291908035906020019092919080359060200190929190803573ffffffffffffffffffffffffffffffffffffffff1690602001909291905050506111b7565b005b34801561045d57600080fd5b506104be6004803603608081101561047457600080fd5b81019080803590602001909291908035906020019092919080359060200190929190803573ffffffffffffffffffffffffffffffffffffffff1690602001909291905050506112d4565b005b3480156104cc57600080fd5b506104f9600480360360208110156104e357600080fd5b81019080803590602001909291905050506113d1565b005b34801561050757600080fd5b506105346004803603602081101561051e57600080fd5b8101908080359060200190929190505050611558565b604051808581526020018473ffffffffffffffffffffffffffffffffffffffff1673ffffffffffffffffffffffffffffffffffffffff16815260200183815260200182815260200194505050505060405180910390f35b34801561059757600080fd5b506105c4600480360360208110156105ae57600080fd5b81019080803590602001909291905050506115a8565b604051808573ffffffffffffffffffffffffffffffffffffffff1673ffffffffffffffffffffffffffffffffffffffff16815260200184815260200183815260200182815260200194505050505060405180910390f35b34801561062757600080fd5b506106726004803603608081101561063e57600080fd5b81019080803590602001909291908035906020019092919080359060200190929190803590602001909291905050506115f8565b6040518082815260200191505060405180910390f35b34801561069457600080fd5b506106cb600480360360408110156106ab57600080fd5b8101908080359060200190929190803590602001909291905050506117c2565b005b3480156106d957600080fd5b50610706600480360360208110156106f057600080fd5b8101908080359060200190929190505050611898565b604051808b73ffffffffffffffffffffffffffffffffffffffff1673ffffffffffffffffffffffffffffffffffffffff1681526020018a815260200189815260200188815260200187815260200186151515158152602001851515151581526020018481526020018381526020018281526020019a505050505050505050505060405180910390f35b6006600082815260200190815260200160002060000160009054906101000a900473ffffffffffffffffffffffffffffffffffffffff1673ffffffffffffffffffffffffffffffffffffffff163373ffffffffffffffffffffffffffffffffffffffff161415156107ff57600080fd5b610807611926565b6006600083815260200190815260200160002061014060405190810160405290816000820160009054906101000a900473ffffffffffffffffffffffffffffffffffffffff1673ffffffffffffffffffffffffffffffffffffffff1673ffffffffffffffffffffffffffffffffffffffff1681526020016001820154815260200160028201548152602001600382015481526020016004820154815260200160058201548152602001600682015481526020016007820160009054906101000a900460ff161515151581526020016007820160019054906101000a900460ff161515151581526020016007820160029054906101000a900460ff16151515158152505090506000600460008360400151815260200190815260200160002090508060070160008154809291906001900391905055508160a0015181600801600082825403925050819055503373ffffffffffffffffffffffffffffffffffffffff166108fc8360a001519081150290604051600060405180830381858888f1935050505015801561099c573d6000803e3d6000fd5b50505050565b6006600083815260200190815260200160002060000160009054906101000a900473ffffffffffffffffffffffffffffffffffffffff1673ffffffffffffffffffffffffffffffffffffffff163373ffffffffffffffffffffffffffffffffffffffff16141515610a1257600080fd5b60066000838152602001908152602001600020600501548111151515610a3757600080fd5b60016006600084815260200190815260200160002060070160026101000a81548160ff0219169083151502179055508060066000848152602001908152602001600020600601819055505050565b6006600082815260200190815260200160002060000160009054906101000a900473ffffffffffffffffffffffffffffffffffffffff1673ffffffffffffffffffffffffffffffffffffffff163373ffffffffffffffffffffffffffffffffffffffff16141515610af557600080fd5b600460006006600084815260200190815260200160002060020154815260200190815260200160002060050160009054906101000a900460ff161515610b3a57600080fd5b600060066000838152602001908152602001600020905060008160000160006101000a81548173ffffffffffffffffffffffffffffffffffffffff021916908373ffffffffffffffffffffffffffffffffffffffff16021790555060008160070160016101000a81548160ff02191690831515021790555060008160070160006101000a81548160ff0219169083151502179055508060070160029054906101000a900460ff1615610c0e5760008160070160026101000a81548160ff021916908315150217905550600081600601819055505b5050565b7f04ca0b37aac6afaa8948e2181b837e8a9f3a7a2433a9bc68ff0ef32e1ee41ab96007546040518082815260200191505060405180910390a15050565b826002600060035481526020019081526020016000206001018190555081600260006003548152602001908152602001600020600201819055503360026000600354815260200190815260200160002060000160006101000a81548173ffffffffffffffffffffffffffffffffffffffff021916908373ffffffffffffffffffffffffffffffffffffffff16021790555080600260006003548152602001908152602001600020600301819055507f36a124e0cbd99242baa1763d447e96c19751c28d23d5848dc86f82b6ada60b7b6003546040518082815260200191505060405180910390a1600160035401600381905550505050565b60066020528060005260406000206000915090508060000160009054906101000a900473ffffffffffffffffffffffffffffffffffffffff16908060010154908060020154908060030154908060040154908060050154908060060154908060070160009054906101000a900460ff16908060070160019054906101000a900460ff16908060070160029054906101000a900460ff1690508a565b6006600082815260200190815260200160002060070160029054906101000a900460ff161515610e1157600080fd5b600660008281526020019081526020016000206006015434141515610e3557600080fd5b336006600083815260200190815260200160002060000160006101000a81548173ffffffffffffffffffffffffffffffffffffffff021916908373ffffffffffffffffffffffffffffffffffffffff1602179055503460066000838152602001908152602001600020600501819055506006600082815260200190815260200160002060070160009054906101000a900460ff161515610eff5760016006600083815260200190815260200160002060070160006101000a81548160ff0219169083151502179055505b50565b6006600083815260200190815260200160002060000160009054906101000a900473ffffffffffffffffffffffffffffffffffffffff1673ffffffffffffffffffffffffffffffffffffffff163373ffffffffffffffffffffffffffffffffffffffff16141515610f7257600080fd5b806006600084815260200190815260200160002060000160006101000a81548173ffffffffffffffffffffffffffffffffffffffff021916908373ffffffffffffffffffffffffffffffffffffffff1602179055505050565b600060046000838152602001908152602001600020905060008082600301548152602001908152602001600020600301600081548092919060010191905055508060070160008154809291906001019190505550348160080160008282540192505081905550600760008154809291906001019190505550610140604051908101604052803373ffffffffffffffffffffffffffffffffffffffff168152602001826003015481526020018381526020018260040154815260200182600101548152602001348152602001600081526020016001151581526020016001151581526020016000151581525060066000600754815260200190815260200160002060008201518160000160006101000a81548173ffffffffffffffffffffffffffffffffffffffff021916908373ffffffffffffffffffffffffffffffffffffffff1602179055506020820151816001015560408201518160020155606082015181600301556080820151816004015560a0820151816005015560c0820151816006015560e08201518160070160006101000a81548160ff0219169083151502179055506101008201518160070160016101000a81548160ff0219169083151502179055506101208201518160070160026101000a81548160ff0219169083151502179055509050505050565b3373ffffffffffffffffffffffffffffffffffffffff166002600087815260200190815260200160002060000160009054906101000a900473ffffffffffffffffffffffffffffffffffffffff1673ffffffffffffffffffffffffffffffffffffffff1614151561122757600080fd5b806002600087815260200190815260200160002060000160006101000a81548173ffffffffffffffffffffffffffffffffffffffff021916908373ffffffffffffffffffffffffffffffffffffffff1602179055508360026000878152602001908152602001600020600101819055508260026000878152602001908152602001600020600201819055508160026000878152602001908152602001600020600301819055505050505050565b3373ffffffffffffffffffffffffffffffffffffffff1660008086815260200190815260200160002060010160009054906101000a900473ffffffffffffffffffffffffffffffffffffffff1673ffffffffffffffffffffffffffffffffffffffff1614151561134357600080fd5b8060008086815260200190815260200160002060010160006101000a81548173ffffffffffffffffffffffffffffffffffffffff021916908373ffffffffffffffffffffffffffffffffffffffff1602179055508260008086815260200190815260200160002060000181905550816000808681526020019081526020016000206002018190555050505050565b426004600083815260200190815260200160002060010154101515156113f657600080fd5b3373ffffffffffffffffffffffffffffffffffffffff16600260006004600085815260200190815260200160002060040154815260200190815260200160002060000160009054906101000a900473ffffffffffffffffffffffffffffffffffffffff1673ffffffffffffffffffffffffffffffffffffffff1614156114a65760016004600083815260200190815260200160002060050160006101000a81548160ff0219169083151502179055505b3373ffffffffffffffffffffffffffffffffffffffff166000806004600085815260200190815260200160002060030154815260200190815260200160002060010160009054906101000a900473ffffffffffffffffffffffffffffffffffffffff1673ffffffffffffffffffffffffffffffffffffffff1614156115555760016004600083815260200190815260200160002060050160016101000a81548160ff0219169083151502179055505b50565b60006020528060005260406000206000915090508060000154908060010160009054906101000a900473ffffffffffffffffffffffffffffffffffffffff16908060020154908060030154905084565b60026020528060005260406000206000915090508060000160009054906101000a900473ffffffffffffffffffffffffffffffffffffffff16908060010154908060020154908060030154905084565b600042831015151561160957600080fd5b600073ffffffffffffffffffffffffffffffffffffffff1660008087815260200190815260200160002060010160009054906101000a900473ffffffffffffffffffffffffffffffffffffffff1673ffffffffffffffffffffffffffffffffffffffff161415151561167a57600080fd5b600073ffffffffffffffffffffffffffffffffffffffff166002600086815260200190815260200160002060000160009054906101000a900473ffffffffffffffffffffffffffffffffffffffff1673ffffffffffffffffffffffffffffffffffffffff16141515156116ec57600080fd5b826004600060055481526020019081526020016000206001018190555084600460006005548152602001908152602001600020600301819055508360046000600554815260200190815260200160002060040181905550816004600060055481526020019081526020016000206006018190555061176b6005546113d1565b60055490507f7f84dea598531817d8fcc18f67186f38fdc5099eff347fc76972f391dceb43dd6005546040518082815260200191505060405180910390a16001600560008282540192505081905550949350505050565b816000806001548152602001908152602001600020600001819055508060008060015481526020019081526020016000206002018190555033600080600154815260200190815260200160002060010160006101000a81548173ffffffffffffffffffffffffffffffffffffffff021916908373ffffffffffffffffffffffffffffffffffffffff1602179055507f6ed63dc9816b35296b57d6c76bbaab1b9b5cc71af5f622982a7f1ef843a455c36001546040518082815260200191505060405180910390a160018054016001819055505050565b60046020528060005260406000206000915090508060000160009054906101000a900473ffffffffffffffffffffffffffffffffffffffff16908060010154908060020154908060030154908060040154908060050160009054906101000a900460ff16908060050160019054906101000a900460ff1690806006015490806007015490806008015490508a565b61014060405190810160405280600073ffffffffffffffffffffffffffffffffffffffff168152602001600081526020016000815260200160008152602001600081526020016000815260200160008152602001600015158152602001600015158152602001600015158152509056fea165627a7a72305820a3a1df1366f4a7c25ece0bd99a229a10b2c2b126e7228f09ba1b1f63da8275d90029",
  "source": "pragma solidity >=0.4.25;\n\n\n\ncontract ticketingSystem {\n  \n\n  mapping(uint => Artist) public artistsRegister;\n\n  struct Artist\n  {\n    bytes32 name;\n    address owner;\n    uint artistCategory;\n    uint totalTicketSold;\n  }\n\n  event createdAnArtist(uint artistNumber);\n\n  uint idA = 1;\n\n  function createArtist( bytes32 _name, uint _artistCategory )\n  public\n  {\n    artistsRegister[idA].name = _name;\n    artistsRegister[idA].artistCategory = _artistCategory;\n    artistsRegister[idA].owner = msg.sender;\n    \n    emit createdAnArtist(idA);\n\n    idA = idA + 1;\n  }  \n\n\n  function modifyArtist( uint _id, bytes32 newName, uint newCategory, address newAdd)\n  public\n  {\n    require(artistsRegister[_id].owner == msg.sender);\n    artistsRegister[_id].owner = newAdd;\n    artistsRegister[_id].name = newName;\n    artistsRegister[_id].artistCategory = newCategory;\n  }\n\n\n  mapping(uint => Venue) public venuesRegister;\n\n\n  struct Venue\n  {\n    address owner;\n    bytes32 name;\n    uint capacity;\n    uint standardComission;\n\n  }\n\n\n  event createdAVenue(uint venueNumber);\n\n  uint idV = 1;\n\n  function createVenue( bytes32 _name, uint _capacity, uint _standardComission )\n  public\n  {\n    venuesRegister[idV].name = _name;\n    venuesRegister[idV].capacity = _capacity;\n    venuesRegister[idV].owner = msg.sender;\n    venuesRegister[idV].standardComission = _standardComission;\n    \n    emit createdAVenue(idV);\n\n    idV = idV + 1;\n  }\n\n  function modifyVenue( uint _idV, bytes32 newName, uint newCapacity, uint newComission, address newAdd)\n  public\n  {\n    require(venuesRegister[_idV].owner == msg.sender);\n    venuesRegister[_idV].owner = newAdd;\n    venuesRegister[_idV].name = newName;\n    venuesRegister[_idV].capacity = newCapacity;\n    venuesRegister[_idV].standardComission = newComission;\n  }\n\n\n\n  mapping(uint => Concert) public concertsRegister;\n\n  struct Concert\n  {\n    address owner;\n    uint concertDate;\n    uint numberPlace;\n    uint artistId;\n    uint venueId;\n    bool validatedByVenue;\n    bool validatedByArtist;\n    uint price;\n\n    uint totalSoldTicket;\n    uint totalMoneyCollected;\n  }\n\n\n  event createdAConcert(uint concertNumber);\n\n  uint idC = 1;\n\n\n  function createConcert(uint _artistId, uint _venueId, uint _concertDate, uint _ticketPrice)\n  public\n  returns (uint concertNumber)\n  {\n    require(_concertDate >= now);\n    require(artistsRegister[_artistId].owner != address(0));\n    require(venuesRegister[_venueId].owner != address(0));\n    concertsRegister[idC].concertDate = _concertDate;\n    concertsRegister[idC].artistId = _artistId;\n    concertsRegister[idC].venueId = _venueId;\n    concertsRegister[idC].price = _ticketPrice;\n    validateConcert(idC);\n    concertNumber = idC;\n    \n    emit createdAConcert(idC);\n    idC +=1;\n  }\n\n\n  function validateConcert(uint _concertId)\n  public\n  {\n    require(concertsRegister[_concertId].concertDate >= now);\n\n    if (venuesRegister[concertsRegister[_concertId].venueId].owner == msg.sender)\n    {\n      concertsRegister[_concertId].validatedByVenue = true;\n    }\n    if (artistsRegister[concertsRegister[_concertId].artistId].owner == msg.sender)\n    {\n      concertsRegister[_concertId].validatedByArtist = true;\n    }\n  }\n\n  mapping (uint => Ticket)  public ticketsRegister;\n\n  uint _numberOfTickets = 0;\n\n  struct Ticket \n  {\n    address owner;\n    uint artistId;\n    uint concertId;\n    uint venueId;\n    uint concertDate;\n    uint amountPaid;\n    uint salePrice;\n    bool isRefundable;\n    bool isAvailable;\n    bool isAvailableForSale;\n  }\n\n  event createdATicket(uint num);\n\n  function emitTicket(uint _concertId, address _receiver) \n  public \n  {\n\n        emit createdATicket(_numberOfTickets);\n  }\n\n\n  function buyTicket(uint _concertId) \n  public payable \n  {\n    Concert storage concert = concertsRegister[_concertId];\n    artistsRegister[concert.artistId].totalTicketSold++;\n    concert.totalSoldTicket++;\n    concert.totalMoneyCollected += msg.value;\n    _numberOfTickets++;\n    ticketsRegister[_numberOfTickets] = Ticket(msg.sender, concert.artistId, _concertId, concert.venueId, concert.concertDate, msg.value, 0, true, true, false);\n  }\n\n\n  function transferTicket(uint _ticketId, address _receiver) \n  public \n  {\n    require(msg.sender == ticketsRegister[_ticketId].owner);\n    ticketsRegister[_ticketId].owner = _receiver;\n  }\n\n\n\n  function offerTicketForSale(uint _ticketId, uint _salePrice) \n  public \n  {\n    require(msg.sender == ticketsRegister[_ticketId].owner);\n    require(_salePrice <= ticketsRegister[_ticketId].amountPaid);\n    ticketsRegister[_ticketId].isAvailableForSale = true;\n    ticketsRegister[_ticketId].salePrice = _salePrice;\n  }\n\n\n  function buySecondHandTicket(uint _ticketId) \n  public payable \n  {\n    require(ticketsRegister[_ticketId].isAvailableForSale);\n    require(msg.value == ticketsRegister[_ticketId].salePrice);\n    ticketsRegister[_ticketId].owner = msg.sender;\n    ticketsRegister[_ticketId].amountPaid = msg.value;\n    if (!ticketsRegister[_ticketId].isRefundable) \n    {\n        ticketsRegister[_ticketId].isRefundable = true;\n    }\n  }\n\n\n    function useTicket(uint _ticketId) \n    public \n    {\n        require(msg.sender == ticketsRegister[_ticketId].owner);\n        require(concertsRegister[ticketsRegister[_ticketId].concertId].validatedByVenue);\n        Ticket storage ticket = ticketsRegister[_ticketId];\n        ticket.owner = address(0);\n        ticket.isAvailable = false;\n        ticket.isRefundable = false;\n        if (ticket.isAvailableForSale) \n        {\n            ticket.isAvailableForSale = false;\n            ticket.salePrice = 0;\n        }\n    }\n\n  function redeemTicket(uint _ticketId) \n  public \n  {\n    require(msg.sender == ticketsRegister[_ticketId].owner);\n    Ticket memory ticket = ticketsRegister[_ticketId];\n    Concert storage concert = concertsRegister[ticket.concertId];\n    concert.totalSoldTicket--;\n    concert.totalMoneyCollected -= ticket.amountPaid;\n    msg.sender.transfer(ticket.amountPaid);\n  }\n  \n}\n\n\n\n\n\n\n\n\n\n\n",
  "sourcePath": "/Users/sessionecole/Desktop/truffletd/contracts/ticketing.sol",
  "compiler": {
    "name": "solc",
    "version": "0.5.0+commit.1d4f565a.Emscripten.clang"
  },
  "schemaVersion": "3.0.5",
  "updatedAt": "2019-03-28T21:19:55.914Z",
  "devdoc": {
    "methods": {}
  },
  "userdoc": {
    "methods": {}
  }
}